:100000000C9462010C9493010C9493010C94930151
:100010000C9493010C9493010C9493010C94930110
:100020000C9493010C9493010C9493010C94930100
:100030000C9493010C9493010C9493010C949301F0
:100040000C9493010C9493010C9493010C949301E0
:100050000C9469060C9493010C9493010C941F0664
:100060000C9493010C94F5050C94CB050C9493011E
:100070000C9493010C9493010C9493010C949301B0
:100080000C9493010C9493010C9493010C949301A0
:100090000C9493010C9493010C9493010C94930190
:1000A0000C9493010C9493010C9493010C94930180
:1000B0000C9493010C9493010C9493010C94930170
:1000C0000C9493010C9493010C9493010C94A1054E
:1000D0000C9477050C9493010C944D050C94230516
:1000E0000C9493010C94BB020C9438030C94EC0216
:1000F0000C94CA020C94A0030C9428020C94DE0207
:100100000C9435020C9461020C9420020C94310280
:100110000C9424020C940A020C9449020C940502DB
:100120000C9451020C944D020C9457020C945B02F7
:100130000C9443020C943F020C943B020C941C025E
:100140000C9475020C9494060C942B020D0A5245E3
:100150005345542121212121210D0A0000002100B5
:10016000240027002A002D00300033000101000088
:10017000040107010A010D0A736574757020656E2C
:1001800064210000002200250028002B002E0031F1
:1001900000340002010000050108010B01050505FE
:1001A00005070508080808020202020A0A080804EE
:1001B000040404010101010101010103030303031C
:1001C000030303040707070C0C0C0C0C0C0C0C02AB
:1001D00002020206060606060606060B0B0B0B0BB2
:1001E0000B0B0B01021020200808102040102040AB
:1001F00080020102010804020101020408102040EB
:100200008080402010080402018004020180402008
:100210001008040201080402010102040810204031
:1002200080010204081020408000000A0B02090C23
:100230000D0E08070304010000000000000000008C
:1002400000000000000000000000000000000000AE
:10025000000000000012111000000000000000006B
:100260000000000000000000000000000000000D81
:100270000A3D3D3D3D3D3D3D3D3D3D72656365690A
:10028000766520415420436F6D6D616E643A3D3D4B
:100290003D3D3D3D3D3D3D3D0D0A000D0A2D2D2DC1
:1002A0002D2D2D2D2D2D73656E6420415420436F0F
:1002B0006D6D616E643A2D2D2D2D2D2D2D2D2D0D55
:1002C0000A00940611241FBECFEFD1E2DEBFCDBFDE
:1002D00000E00CBF28E0AAE4B2E001C01D92A93FF3
:1002E000B207E1F712E0A0E0B2E0EEE5F1E100E0F4
:1002F0000BBF02C007900D92AA34B107D9F711E0E5
:10030000C2E6D1E000E006C021970109802FFE017E
:100310000E948208C136D10780E00807A9F70E9431
:100320000D070C94AD080C940000CF93DF93EC0103
:100330009A01AB01E889F98982E08083211581EE79
:1003400038074105510581F160E079E08DE390E0E7
:100350000E9460082150310941095109569547957D
:1003600037952795EC85FD851082EE85FF852083E6
:10037000188EEC89FD8986E08083EA89FB8980817B
:1003800080618083EA89FB89808188608083EA8933
:10039000FB89808180688083EA89FB8980818F7DE9
:1003A0008083DF91CF910895E889F989108220E157
:1003B000D9CF382FE6E3F2E08491E0EFF1E0249129
:1003C000EAEAF1E09491992309F435C0882311F108
:1003D00081508231F8F4E82FF0E08827ED50FE4F8D
:1003E0008F4F0C9482082402280205021C0220026E
:1003F0000A022B02310235023B023F02430249024C
:100400004D020A02510257025B02809180008F77F1
:1004100080938000E92FF0E0EE0FFF1FED57FE4FB5
:10042000A591B4918FB7F894EC91311148C0209503
:100430002E232C938FBF0895809180008F7DE8CF6D
:1004400080918000877FE4CF84B58F7784BDE2CF31
:1004500084B58F7DFBCF8091B0008F778093B00003
:10046000D9CF8091B0008F7DF9CF809190008F77A8
:1004700080939000CFCF809190008F7DF9CF8091B5
:100480009000877FF5CF8091A0008F778093A000A8
:10049000C1CF8091A0008F7DF9CF8091A000877F90
:1004A000F5CF809120018F7780932001B3CF809189
:1004B00020018F7DF9CF80912001877FF5CF2E2BF2
:1004C000B8CF80911E0790911F07A0912007B0918F
:1004D00021070196A11DB11D80931E0790931F0750
:1004E000A0932007B09321070895AF92BF92CF92B7
:1004F000DF92EF92FF920F931F93CF93DF936C01E4
:100500007B018B01040F151FEB015E01AE18BF08C4
:10051000C017D10759F06991D601ED91FC91019076
:10052000F081E02DC6011995892B79F7C501DF917E
:10053000CF911F910F91FF90EF90DF90CF90BF90E0
:10054000AF900895FC01A089B1898C91A689B789E3
:1005500082FD0FC09C91818D8F5F8F73228D8217DA
:1005600049F0A18DAE0FBF2FB11D5D969C93818F79
:1005700008958C910895FC01538D448D252F30E012
:10058000842F90E0821B930B541710F0CF960895A0
:1005900001970895FC01918D828D981761F0A28DCD
:1005A000AE0FBF2FB11D5D968C91928D9F5F9F7393
:1005B000928F90E008958FEF9FEF0895FC01918D49
:1005C000828D981731F0828DE80FF11D858D90E0B6
:1005D00008958FEF9FEF0895FC01918D228D892F53
:1005E00090E0805C9F4F821B91098F73992708953B
:1005F00082E297E00E94EC0221E0892B09F420E0DE
:10060000822F08958FEB97E00E94EC0221E0892B66
:1006100009F420E0822F08958CE598E00E94EC0216
:1006200021E0892B09F420E0822F0895FC01A48D9C
:10063000A80FB92FB11DA35ABF4F2C91848D90E004
:1006400001968F739927848FA689B7892C93A089E7
:10065000B1898C91837080648C93938D848D981371
:1006600006C00288F389E02D80818F7D8083089504
:10067000EF92FF920F931F93CF93DF93EC0181E0F2
:10068000888F9B8D8C8D98131AC0E889F989808199
:1006900085FF15C09FB7F894EE89FF896083E889CC
:1006A000F98980818370806480839FBF81E090E0BE
:1006B000DF91CF911F910F91FF90EF900895F62E4B
:1006C0000B8D10E00F5F1F4F0F731127E02E8C8DE5
:1006D0008E110CC00FB607FCFACFE889F98980812A
:1006E00085FFF5CFCE010E941603F1CFEB8DEC0F05
:1006F000FD2FF11DE35AFF4FF0829FB7F8940B8F47
:10070000EA89FB8980818062CFCF0F931F93CF93BB
:10071000DF938C01D0E0C0E0F801EC0FFD1F649185
:10072000662341F08CE598E00E943803892B11F094
:100730002196F2CFCE01DF91CF911F910F910895B5
:10074000CF93DF93EC01888D8823B9F0AA89BB8908
:10075000E889F9898C9185FD03C0808186FD0DC0F3
:100760000FB607FCF7CF8C9185FFF2CF808185FF14
:10077000EDCFCE010E941603E9CFDF91CF9108950E
:1007800080E090E0892B29F00E940C0381110E94E7
:10079000000080E090E0892B49F080E090E0892B18
:1007A00029F00E94000081110E94000080E090E08A
:1007B000892B29F00E94020381110E94000080E031
:1007C00090E0892B29F00E94F80281110C9400001E
:1007D00008953FB7F89480914F0290915002A091F4
:1007E0005102B091520226B5A89B05C02F3F19F0C7
:1007F0000196A11DB11D3FBFBA2FA92F982F8827A1
:10080000BC01CD01620F711D811D911D42E0660F7B
:10081000771F881F991F4A95D1F708958F929F924D
:10082000AF92BF92CF92DF92EF92FF924B015C01A9
:100830000E94E9036B017C010E94E9036C197D09A8
:100840008E099F09683E734081059105A8F321E058
:10085000821A9108A108B10888EEC80E83E0D81E5C
:10086000E11CF11C81149104A104B10429F7FF904B
:10087000EF90DF90CF90BF90AF909F908F900895B2
:100880006115710551F0FB0101900020E9F73197E6
:10089000AF01461B570B0C94750290E080E0089561
:1008A00042E050E066E372E08CE598E00C9475025B
:1008B000EAE2F5E084EF91E0DF019C011D92215016
:1008C0003040E1F7109229051092280508950F9302
:1008D0001F93CF93DF93EC018B010E9458048BE9A7
:1008E00092E00E948503BE018CE598E00E944004DE
:1008F000BE018FEB97E00E94400410921E071092F9
:100900001F0710922007109221078FEB97E00E949B
:10091000EC02892BC9F08FEB97E00E94CA0220916C
:10092000280530912905A9014F5F5F4F5093290594
:1009300040932805265D3A4FF9018083443F51409A
:1009400021F70E945804E1CFB8018AE295E00E94A5
:100950009308892BD1F28FE692E00E9485036AE228
:1009600075E08CE598E00E9440040E94580481E004
:1009700090E0DF91CF911F910F910895EEECF2E09E
:1009800088E592E0DF019C011D9221503040E1F7A3
:1009900010922705109226050895CF93DF93CDB7C7
:1009A000DEB7A1970FB6F894DEBF0FBECDBF182FEC
:1009B00062E172E08CE598E00E94400419A2105DAB
:1009C00018A3BE01605E7F4F8CE598E00E94400452
:1009D0000E94500410E000E081E00E94D90164E62A
:1009E00070E080E090E00E940E0480E00E94D90157
:1009F00064E670E080E090E00E940E0481E00E94D6
:100A0000D90164E670E080E090E00E940E0480E08E
:100A10000E94D9016CE271E080E090E00E940E0437
:100A200024E630E040E050E068E172E08BE192E0E3
:100A30000E946704019781F68CE491E00E9485038F
:100A4000F8011995C9CF1F920F920FB60F9211247A
:100A50000BB60F922F933F934F935F936F937F93B8
:100A60008F939F93AF93BF93EF93FF9382E297E0AF
:100A70000E941603FF91EF91BF91AF919F918F91CB
:100A80007F916F915F914F913F912F910F900BBE8E
:100A90000F900FBE0F901F9018951F920F920FB6D8
:100AA0000F9211240BB60F922F933F934F935F93A6
:100AB0006F937F938F939F93AF93BF93EF93FF9326
:100AC00082E297E00E94A202FF91EF91BF91AF9165
:100AD0009F918F917F916F915F914F913F912F9156
:100AE0000F900BBE0F900FBE0F901F9018951F9286
:100AF0000F920FB60F9211240BB60F922F933F93C4
:100B00004F935F936F937F938F939F93AF93BF9315
:100B1000EF93FF938FEB97E00E941603FF91EF9105
:100B2000BF91AF919F918F917F916F915F914F9105
:100B30003F912F910F900BBE0F900FBE0F901F9003
:100B400018951F920F920FB60F9211240BB60F92A9
:100B50002F933F934F935F936F937F938F939F93C5
:100B6000AF93BF93EF93FF938FEB97E00E94A202A6
:100B7000FF91EF91BF91AF919F918F917F916F9175
:100B80005F914F913F912F910F900BBE0F900FBE31
:100B90000F901F9018951F920F920FB60F9211246D
:100BA0000BB60F922F933F934F935F936F937F9367
:100BB0008F939F93AF93BF93EF93FF938CE598E050
:100BC0000E941603FF91EF91BF91AF919F918F917A
:100BD0007F916F915F914F913F912F910F900BBE3D
:100BE0000F900FBE0F901F9018951F920F920FB687
:100BF0000F9211240BB60F922F933F934F935F9355
:100C00006F937F938F939F93AF93BF93EF93FF93D4
:100C10008CE598E00E94A202FF91EF91BF91AF9105
:100C20009F918F917F916F915F914F913F912F9104
:100C30000F900BBE0F900FBE0F901F9018951F9234
:100C40000F920FB60F9211242F933F938F939F9380
:100C5000AF93BF9380914B0290914C02A0914D02B3
:100C6000B0914E0230914A0223E0230F2D3758F500
:100C70000196A11DB11D20934A0280934B029093CF
:100C80004C02A0934D02B0934E0280914F0290917E
:100C90005002A0915102B09152020196A11DB11DC6
:100CA00080934F0290935002A0935102B09352024E
:100CB000BF91AF919F918F913F912F910F900FBE58
:100CC0000F901F90189526E8230F0296A11DB11DC5
:100CD000D2CF1F920F920FB60F9211240BB60F9224
:100CE0002F933F934F935F936F937F938F939F9334
:100CF000AF93BF93EF93FF93E0915302F0915402AF
:100D00001995FF91EF91BF91AF919F918F917F9135
:100D10006F915F914F913F912F910F900BBE0F906C
:100D20000FBE0F901F901895E2E2F7E01382128237
:100D300048EE53E060E070E0448355836683778338
:100D400084E092E09183808325E331E03587248736
:100D500024E331E03787268720E331E0318B208B95
:100D600021E331E0338B228B22E331E0358B248B7E
:100D700026E331E0378B268B118E128E138E148E64
:100D8000EFEBF7E013821282448355836683778307
:100D90009183808325ED30E03587248724ED30E092
:100DA0003787268720ED30E0318B208B21ED30E036
:100DB000338B228B22ED30E0358B248B26ED30E017
:100DC000378B268B118E128E138E148EECE5F8E085
:100DD0001382128244835583668377839183808351
:100DE00085EC90E09587848784EC90E097878687F0
:100DF00080EC90E0918B808B81EC90E0938B828BE8
:100E000082EC90E0958B848B86EC90E0978B868BC0
:100E1000118E128E138E148E0895789484B582608C
:100E200084BD84B5816084BD85B5826085BD85B58E
:100E3000816085BD80916E00816080936E0010920C
:100E40008100809181008260809381008091810087
:100E50008160809381008091800081608093800018
:100E60008091B10084608093B1008091B000816076
:100E70008093B00080919100826080939100809176
:100E800091008160809391008091900081608093B7
:100E900090008091A10082608093A1008091A100C8
:100EA00081608093A1008091A00081608093A00068
:100EB00080912101826080932101809121018160D4
:100EC0008093210180912001816080932001809195
:100ED0007A00846080937A0080917A0082608093A7
:100EE0007A0080917A00816080937A0080917A0004
:100EF000806880937A001092C10040E855E260E07B
:100F000070E08CE598E00E94950140E052EC61E0D1
:100F100070E08FEB97E00E94950140E855E260E0B9
:100F200070E082E297E00E949501E0EFF1E0249109
:100F3000EAEAF1E08491882399F090E0880F991F04
:100F4000FC01E45AFE4FA591B491FC01ED57FE4F10
:100F5000859194918FB7F894EC91E22BEC938FBF2D
:100F600080E00E94D90180E180938100109280008E
:100F700080E49FE1909387008093860081E18093D5
:100F8000810081E692E0909354028093530281E0C5
:100F900080936F0028EB3BE040E050E060E272E0BD
:100FA00085E292E00E946704019721F081E090E0E1
:100FB0000E94CD0428EB3BE040E050E060E272E0AC
:100FC0008BE192E00E946704019719F082E090E0C3
:100FD000EFCF6AE070E080E090E00E940E0428EE1F
:100FE00033E040E050E060E272E08EE292E00E9486
:100FF0006704019719F083E090E0DACF6AE070E0CF
:1010000080E090E00E940E0486E791E00E94850354
:101010000E9450040E94580411E082E297E00E946E
:10102000EC02892B09F449C082E297E00E94CA02CF
:101030002091260530912705F901E253FD4F808369
:101040002F5F3F4F30932705209326058A3051F5B7
:1010500069E372E08EEC92E00E949308EC01892B28
:1010600049F461E472E08EEC92E00E949308EC0196
:10107000892BB1F066E372E0CE010E9493080097DD
:1010800079F0C817D90760F4AC014C1B5D0BBE01A9
:1010900083E692E00E948A08109355020E94BE04E3
:1010A0000E94BE04809126059091270588359240C4
:1010B00009F0B3CF0E94BE04B0CF0E94C003ADCFF1
:1010C000A1E21A2EAA1BBB1BFD010DC0AA1FBB1F4C
:1010D000EE1FFF1FA217B307E407F50720F0A21BBE
:1010E000B30BE40BF50B661F771F881F991F1A942B
:1010F00069F760957095809590959B01AC01BD0155
:10110000CF010895EE0FFF1F881F8BBF0790F69148
:10111000E02D1994FB01DC0102C001900D924150B9
:101120005040D8F70895FB0151915523A9F0BF0114
:10113000DC014D9145174111E1F759F4CD010190C2
:10114000002049F04D9140154111C9F3FB014111B7
:0E115000EFCF81E090E001970895F894FFCF73
:10115E000000000038037502BB02A003EC02CA02B5
:10116E00DE024552524F52004F4B0041540D0A00C1
:10117E004F4B0D0A0041542B5253540D0A0041544B
:10118E002B4750533D310D0A00244750524D432CEE
:0A119E000024474E524D432C000080
:00000001FF
